:100000000C9462000C948A000C948A000C948A0070
:100010000C948A000C948A000C948A000C94800240
:100020000C948A000C948A000C948A000C948A0028
:100030000C948A000C948A000C948A000C948A0018
:100040000C9436020C948A000C9404020C94DE0189
:100050000C948A000C948A000C948A000C948A00F8
:100060000C948A000C948A000000000025002800EF
:100070002B0000000000240027002A0004040404D0
:100080000404040402020202020203030303030342
:10009000010204081020408001020408102001021F
:1000A00004081020000000002300260029000000A2
:1000B0000008000201000003040700000000000027
:1000C0000000BC0B11241FBECFEFD8E0DEBFCDBFB8
:1000D00011E0A0E0B1E0EAE2FDE102C005900D927E
:1000E000A431B107D9F722E0A4E1B1E001C01D922B
:1000F000AD39B207E1F710E0C2E6D0E004C02197C5
:10010000FE010E94400CC136D107C9F70E941B04B2
:100110000C94930E0C940000CF92DF92EF92FF921A
:100120000F931F93CF93DF936C017A018B01C0E093
:10013000D0E0CE15DF0589F0D8016D918D01D60193
:10014000ED91FC910190F081E02DC6010995892B7C
:1001500011F47E0102C02196ECCFC701DF91CF914F
:100160001F910F91FF90EF90DF90CF900895FC01C9
:10017000918D828D981761F0828DDF01A80FB11DDE
:100180005D968C91928D9F5F9F73928F90E0089502
:100190008FEF9FEF0895FC01918D828D981731F0BC
:1001A000828DE80FF11D858D90E008958FEF9FEF10
:1001B0000895FC01918D228D892F90E0805C9F4FE6
:1001C000821B91098F73992708958DE291E00E9417
:1001D000D90021E0892B09F420E0822F0895FC0149
:1001E000848DDF01A80FB11DA35ABF4F2C91848DC0
:1001F00090E001968F739927848FA689B7892C93F5
:10020000A089B1898C9180648C93938D848D98138F
:1002100006C00288F389E02D80818F7D8083089558
:10022000EF92FF920F931F93CF93DF93EC0181E046
:10023000888F9B8D8C8D981305C0E889F989808102
:1002400085FD24C0F62E0B8D10E00F5F1F4F0F733E
:100250001127E02E8C8DE8120CC00FB607FCFACFE8
:10026000E889F989808185FFF5CFCE010E94EF00F2
:10027000F1CF8B8DFE01E80FF11DE35AFF4FF082A5
:100280000B8FEA89FB898081806207C0EE89FF8934
:100290006083E889F98980818064808381E090E0CF
:1002A000DF91CF911F910F91FF90EF900895CF9321
:1002B000DF93EC01888D8823C9F0EA89FB8980816E
:1002C00085FD05C0A889B9898C9186FD0FC00FB640
:1002D00007FCF5CF808185FFF2CFA889B9898C9181
:1002E00085FFEDCFCE010E94EF00E7CFDF91CF91E8
:1002F000089580E090E0892B29F00E94E5008111AB
:100300000C9400000895833081F028F4813099F036
:100310008230A1F008958730A9F08830B9F0843098
:10032000D1F4809180008F7D03C0809180008F7711
:1003300080938000089584B58F7702C084B58F7D47
:1003400084BD08958091B0008F7703C08091B00084
:100350008F7D8093B00008951F93CF93DF93282F54
:1003600030E0F901E255FF4F8491F901E057FF4F6A
:10037000D491F901E458FF4FC491CC23C9F0162F52
:1003800081110E948301EC2FF0E0EE0FFF1FE8596E
:10039000FF4FA591B4918FB7F894111105C09C91AE
:1003A000ED2FE095E92302C0EC91ED2BEC938FBF8C
:1003B000DF91CF911F9108950E948E0E1F920F9290
:1003C0000FB60F9211242F933F934F935F936F9328
:1003D0007F938F939F93AF93BF93EF93FF938DE2A0
:1003E00091E00E94EF00FF91EF91BF91AF919F913B
:1003F0008F917F916F915F914F913F912F910F90CE
:100400000FBE0F901F9018951F920F920FB60F926C
:1004100011242F938F939F93EF93FF93E0913D01CE
:10042000F0913E018081E0914301F091440182FD11
:1004300012C09081809146018F5F8F732091470198
:10044000821751F0E0914601F0E0E35DFE4F958F99
:100450008093460101C08081FF91EF919F918F9120
:100460002F910F900FBE0F901F9018951F920F9213
:100470000FB60F9211242F933F938F939F93AF93B7
:10048000BF938091190190911A01A0911B01B09125
:100490001C013091180123E0230F2D3720F4019621
:1004A000A11DB11D05C026E8230F0296A11DB11D97
:1004B000209318018093190190931A01A0931B01B6
:1004C000B0931C018091140190911501A091160127
:1004D000B09117010196A11DB11D80931401909355
:1004E0001501A0931601B0931701BF91AF919F9191
:1004F0008F913F912F910F900FBE0F901F901895E5
:100500001F920F920FB60F9211242F933F934F9388
:100510005F936F937F938F939F93AF93BF93CF938B
:10052000DF93EF93FF932091CB0130E0F901E25587
:10053000FF4F8491F901E057FF4FD491F901E4583E
:10054000FF4FC491CC23A1F081110E948301EC2FB5
:10055000F0E0EE0FFF1FEC55FF4FA591B491EC9129
:10056000ED2331E020E009F430E0832F922F02C028
:1005700080E090E02091CF013091D0012F5F3F4F7C
:100580003093D0012093CF012091CE01253618F071
:1005900026E02093CA012091CA012430D9F128F421
:1005A000223069F02330D9F060C0253009F453C0FF
:1005B000263009F05AC021E020939B0253C00097D7
:1005C00009F053C02091CF013091D001243631057C
:1005D00008F443C010929B021092CE011DC08130DE
:1005E000910509F042C0E091CE0121E02E0F209349
:1005F000CE01F0E02091CF013091D001EE0FFF1F2E
:10060000E653FE4F308727831092D0011092CF011E
:1006100024E029C00097B9F4E091CE0121E02E0F2B
:100620002093CE01F0E02091CF013091D001EE0F68
:10063000FF1FE653FE4F308727831092D0011092A0
:10064000CF0123E010C02091CF013091D001253699
:10065000310558F007C0009741F41092D001109274
:10066000CF0103C025E02093CA012091CD012223B0
:10067000B9F0892B51F48091CC01882321F080912D
:10068000CC0161E009C02D9A0BC08091CC01882378
:1006900031F08091CC0160E00E94AC0101C02D9846
:1006A000FF91EF91DF91CF91BF91AF919F918F918A
:1006B0007F916F915F914F913F912F910F900FBE5E
:1006C0000F901F901895CF92DF92EF92FF92CF93E9
:1006D000DF93EC01072E000C880B990B0E94710D23
:1006E0006B017C0120E030E040E45FE30E94210EDA
:1006F00020E030E048E452E40E94C70C0E94390D2B
:10070000C617D707D4F020E030E040EA5FE3C70126
:10071000B6010E94210E20E030E048E452E40E943D
:10072000C70C20E030E040E85FE30E94560C0E94D6
:10073000390D21E06C177D070CF420E0822F90E04A
:10074000DF91CF91FF90EF90DF90CF9008958F923F
:100750009F92AF92BF92CF92DF92EF92FF920F9350
:100760001F93CF93DF93FC01C081D1812091290198
:1007700030912A01C217D3070CF04BC09E01220F03
:10078000331FE0912701F0912801E20FF31F8080D1
:100790009180C170DD27F1E0CF27209719F404E69E
:1007A00010E002C00CE91FEF7A015B016C01040F3D
:1007B000151FB801C4010E946303892B99F40E0D23
:1007C0001F1DB801C4010E946303892B71F4B80195
:1007D0006E0D7F1DC4010E946303892BE9F023E0A5
:1007E00030E005C021E030E002C022E030E0F50159
:1007F000808191810196821793073CF0F501118267
:100800001082F60180819181019691838083CE01CF
:1008100005C081E090E002C08FEF9FEFDF91CF91A4
:100820001F910F91FF90EF90DF90CF90BF90AF900E
:100830009F908F900895CF93DF93CDB7DEB7AB979E
:100840000FB6F894DEBF0FBECDBF789484B582603A
:1008500084BD84B5816084BD85B5826085BD85B564
:10086000816085BD80916E00816080936E001092E2
:10087000810080918100826080938100809181005D
:1008800081608093810080918000816080938000EE
:100890008091B10084608093B1008091B00081604C
:1008A0008093B00080917A00846080937A00809178
:1008B0007A00826080937A0080917A0081608093D0
:1008C0007A0080917A00806880937A001092C1004B
:1008D000E0913D01F0913E0182E08083E091390199
:1008E000F0913A011082E0913B01F0913C019FECC4
:1008F000908310924501E0914101F091420196E010
:100900009083E0913F01F09140019081906190834C
:10091000E0913F01F0914001908198609083E091D7
:100920003F01F0914001908190689083E0913F01F8
:10093000F091400190819F7D9083F8948093B00066
:100940008093B10094E69093B3001092B20080932C
:10095000700078948093CA011092CE018091CB01EF
:1009600090E0FC01E057FF4F2491FC01E458FF4F59
:1009700084918823C9F090E0880F991FFC01EE58FC
:10098000FF4F45915491FC01E859FF4FA591B49157
:100990009FB7F894FA0180812095822380838C91FF
:1009A000E22FE823EC939FBF30E2232E312C442426
:1009B0004A94542C320121ED31E0309328012093E8
:1009C00027018091CE0190E090932A018093290124
:1009D00080919B0290E090932C0180932B01809159
:1009E000CA01853009F08EC28091D3019091D40163
:1009F000885891098D35910588F48091CE01843015
:100A000041F48091D5019091D6018097479708F4E1
:100A100095C28091CE01843408F077C28091CE01D6
:100A20008A3108F44FC08091D1019091D201843F66
:100A3000914068F410922601109225014092210104
:100A400050922201609223017092240159C080913A
:100A5000D3019091D40185974B97A0F5E7EDF1E094
:100A600082E090E0C12CD12C7601AC014F5F5F4F4A
:100A70002091CE0130E0421753075CF4DF0112975A
:100A80002D913C91275031092730310508F4A0C23F
:100A9000CA0101979595879590932601809325012A
:100AA0000C972CF410922601109225010BC0C092D5
:100AB0002101D0922201E0922301F092240184E0EE
:100AC00090E05BC38091CE018A3108F44CC08091E4
:100AD000D1019091D2018032934008F4ABCF809144
:100AE000D3019091D401C697869708F48EC23BC07B
:100AF000C0922101D0922201E0922301F0922401C0
:100B00008BE090E03AC320813181255231092B31AD
:100B1000310508F08AC2CC0CDD1CEE1CFF1C689469
:100B2000C0F802963496AC014F5F5F4F2091CE0122
:100B300030E04217530754F4DF0112972D913C9196
:100B40002C5031092B303105F0F2CA0101979595EF
:100B5000879590932601809325010C974CF610926F
:100B60002601109225018091CE01823208F44DC0F9
:100B70008091D3019091D4010697079708F045C062
:100B8000E7EDF1E082E090E0C12CD12C76019C01F0
:100B90002F5F3F4F4091CE0150E024173507E4F41A
:100BA000DF0112974D915C9111974E5151094731D8
:100BB000510508F047C2CC0CDD1CEE1CFF1C6894EC
:100BC000C0F8408151813496435051094530510558
:100BD00010F40296DCCFC901019795958795909303
:100BE00026018093250140972CF410922601109243
:100BF00025010BC0C0922101D0922201E092230175
:100C0000F09224018CE090E0B8C21BA21AA2E1E0AD
:100C1000F0E0FA83E9838091CE018D3008F46FC053
:100C200049E753E0BE016E5D7F4FCE0101960E9401
:100C3000A703892B09F063C049E753E0BE016E5D4D
:100C40007F4FCE0101960E94A703019709F057C07C
:100C500049E753E0BE016E5D7F4FCE0101960E94D1
:100C6000A703892B09F04BC0812C912C540100E083
:100C700010E08091CE0190E029813A812817390750
:100C80005CF549E753E0BE016E5D7F4FCE010196F2
:100C90000E94A7037C0149E753E0BE016E5D7F4FD0
:100CA000CE0101960E94A703F1E0EF16F10449F48A
:100CB000892B29F5880C991CAA1CBB1C689480F808
:100CC00008C0EF28E1F40197D1F4880C991CAA1C04
:100CD000BB1C0F5F1F4FCDCF109326010093250142
:100CE0008092210190922201A0922301B0922401CE
:100CF00021E030E030931E0120931D01BEC01BA2F5
:100D00001AA281E090E09A838983809129019091D1
:100D10002A01181619060CF058C0E0912701F0912D
:100D2000280182E090E09A83898382819381899768
:100D30004E9708F04AC023E030E03A83298384814B
:100D400095810B970A9708F040C04CEB51E0BE012B
:100D50006E5D7F4FCE0101960E94A703892BA9F5F6
:100D60004CEB51E0BE016E5D7F4FCE0101960E94BB
:100D7000A703019751F5812C912C540100E010E05C
:100D800029813A818091290190912A0128173907F8
:100D90000CF09BC14CEB51E0BE016E5D7F4FCE016C
:100DA00001960E94A7036C010330110509F057C199
:100DB0004CEB51E0BE016E5D7F4FCE0101960E946B
:100DC000A703C816D90609F44AC1E0912701F0919A
:100DD000280182819381C697869708F094C1848107
:100DE00095814B97459708F08EC1DF0116967F01DC
:100DF00036ECE30EF11C20E030E040E050E060E033
:100E000070E080E090E0CD90DC90119719E0C11A7D
:100E1000D10818E0C116D10408F075C11296CD9022
:100E2000DC90139711E1C11AD1081DE0C116D1045D
:100E300008F05AC101E00E94090C21601496AE1519
:100E4000BF0509F72093210130932201409323012C
:100E50005093240100E20E94240C20931F01309340
:100E6000200185E090E090931E0180931D0180E3B6
:100E700090E090932601809325010091210110912B
:100E80002201209123013091240119A2BE016F5D3E
:100E90007F4FD901C8018F709927AA27BB2744E04B
:100EA00036952795179507954A95D1F761507109A1
:100EB0008A309105A105B10508F064C1805DDB01B0
:100EC0008C93011511052105310519F7611571057F
:100ED00061F0FB0101900020E9F73197AF01461B5B
:100EE000570B8DE291E00E948C0042E050E060E1FF
:100EF00071E08DE291E00E948C0082E08093CA0153
:100F00001092CE010E94790156CD8091D501909129
:100F1000D601825491098E9708F080CD80E090E050
:100F200040E050E0BA01FC01E952FE4F20813181DE
:100F30002950310929303105E0F070CD8091D70179
:100F40009091D8010997099708F063CD1092260176
:100F500010922501409221015092220160922301BA
:100F600070922401E3E0F0E0F0931E01E0931D0194
:100F700084CFFC01E752FE4F208131812751310996
:100F800022313105C0F4440F551F661F771F4160A1
:100F900004968038910539F6309226012092250179
:100FA0004093210150932201609323017093240107
:100FB00083E090E0E2C02081318126503109273062
:100FC000310508F02BCD440F551F661F771FE0CF6A
:100FD00020813181235131092F30310548F4CC0C67
:100FE000DD1CEE1CFF1C6894C0F8029634963DCDC3
:100FF000208131812A5031092930310508F062CD34
:10100000CC0CDD1CEE1CFF1CF0CF8091D501909123
:10101000D601C697869708F0A6CDE9EDF1E083E00A
:1010200090E0C12CD12C76017ECD208131812C50D5
:1010300031092A30310508F096CDCC0CDD1CEE1CB0
:10104000FF1C6FCD4D915C914C5051094B305105B7
:1010500008F0DBCDCC0CDD1CEE1CFF1CB2CD4CEB44
:1010600051E0BE016E5D7F4FCE0101960E94A70345
:101070007C010330110569F44CEB51E0BE016E5D5B
:101080007F4FCE0101960E94A703E816F90609F0EA
:101090009CCEC114D10459F4EA94EF2809F095CEFE
:1010A000880C991CAA1CBB1C689480F80BC0CA94BD
:1010B000CD2809F08ACEEF2809F087CE880C991C3C
:1010C000AA1CBB1C0F5F1F4F5BCE10932601009321
:1010D00025018092210190922201A0922301B092D9
:1010E000240182E090E049C01296CD90DC901397E5
:1010F00014E0C11AD10815E0C116D10420F401E0B2
:101100000E94090C9BCE8091CE01893340F08281F0
:101110009381895791098335910508F44BC18091DA
:10112000CE01823289F18281938189579109833579
:10113000910508F4BAC1828193818C549109C597B5
:1011400078F58091CE01843031F584819581809746
:10115000479708F58681978109970997E0F41092DF
:1011600026011092250140922101509222016092A5
:1011700023017092240187E090E090931E018093F8
:101180001D017BCE895C9BCE828193810A97099752
:1011900008F46FC1C8CF8091CE01843408F0EAC151
:1011A0008091CE01863460F1828193810C970B97F8
:1011B00008F42EC225C0D90112966D917C91139727
:1011C0006E5171096731710508F058C2D701C60127
:1011D000880F991FAA1FBB1F6C017D016894C0F87E
:1011E0004E5F5F4F2C5F3F4F4534510509F42BC2D2
:1011F000D9016D917C916C5071096B307105D8F2F9
:101200008091CE01883580F1828193818558910942
:101210008B35910508F442C227C0BC016F5F7F4F38
:10122000D8014D915C9111974750510947305105B4
:1012300008F043C2220F331F216002960C5F1F4F3C
:101240004091CE0150E044505109841795070CF0AD
:101250003CC2A80142505109DA014D915C914950BC
:10126000510948305105C8F28091CE018032E1F435
:101270008281938106970697B8F4848195810997B6
:10128000099790F49F012A5F3F4FBF01625C7F4F37
:10129000C12CD12C7601D9014D915C914650510958
:1012A0004630510508F42DC22091290130912A01C0
:1012B0003FA32EA3263031050CF41FCE8F010A5F09
:1012C0001F4F65ECC62E6DE9D62E6CE1E62E61E867
:1012D000F62E83E090E09DA38CA3D8016D917C91C4
:1012E000F8013497A080B18080E090E00E946F0DFB
:1012F00068A779A78AA79BA7B50180E090E00E9424
:101300006F0D4B015C012DEC3CEC4CE45FE30E9463
:10131000210E9B01AC0168A579A58AA59BA50E9419
:10132000C20C87FD19C02DEC3CEC4CE45FE368A5D2
:1013300079A58AA59BA50E94210E9B01AC01C50140
:10134000B4010E94C20CE82F880FFF0BEE27FF0F9D
:10135000EE1FFF27319602C0E0E0F0E0A701960102
:1013600063E971E080E091E00E94EE0B6F01FF0FF6
:10137000EE08FF08C626D726E826F926ECA1FDA12F
:101380003196FDA3ECA30E5F1F4F2EA13FA1E217E4
:10139000F30709F0A2CFC0922101D0922201E0927E
:1013A0002301F092240130922601209225018FEF33
:1013B0009FEFE3CE84819581CA97899708F0AFCEDD
:1013C0009F012A5F3F4FC12CD12C760143E050E0B2
:1013D000D9016D917C916A5071096930710508F0ED
:1013E0009ECED90112966D917C9113976651710929
:1013F0006131710570F5D701C601880F991FAA1FC9
:10140000BB1F6C017D016894C0F84E5F5F4F2C5F7D
:101410003F4F4B335105E1F69F012A583F4FD90109
:101420002D913C912A5031092930310508F077CEB1
:101430002CE130E03093260120932501C092210158
:10144000D0922201E0922301F09224018AE090E000
:1014500094CED90112966D917C91139766507109C3
:101460006730710508F05BCECC0CDD1CEE1CFF1C58
:10147000CCCF2091CE01CF01820F911D820F911D03
:10148000DC0112978D919C910A97099708F04BCE39
:1014900010922601109225014092210150922201C2
:1014A000609223017092240162C08091CE0181324A
:1014B00008F441CE84819581CA97899708F03BCE84
:1014C0009F012A5F3F4FC12CD12C760143E050E0B1
:1014D000D9016D917C916A5071096930710508F0EC
:1014E0002ACED90112966D917C911397665171099C
:1014F0006131710560F5D701C601880F991FAA1FD8
:10150000BB1F6C017D016894C0F84E5F5F4F2C5F7C
:101510003F4F43325105E1F69F012A5B3F4FD9010E
:101520002D913C912A5031092930310508F003CE24
:10153000E0E1F0E0F0932601E0932501C092210163
:10154000D0922201E0922301F092240110C0D9012F
:1015500012966D917C9113976650710967307105F1
:1015600008F0E9CDCC0CDD1CEE1CFF1CCECF86E0D4
:1015700090E003CE8481958189549109C39708F046
:101580000FCE9F012A5F3F4FBF016A577F4FC12C8B
:10159000D12C7601D9014D915C91495051094930C6
:1015A000510508F0FDCDD90112964D915C9113972C
:1015B000465151094131510500F112964D915C910E
:1015C0001397465051094730510508F0E9CDCC0C2E
:1015D000DD1CEE1CFF1C2C5F3F4F26173707D1F692
:1015E0003092260120922501C0922101D092220141
:1015F000E0922301F0922401BECDD701C601880FED
:10160000991FAA1FBB1F6C017D016894C0F8E3CF2E
:10161000848195810997099708F0F2CD8681978199
:101620008C974F9708F0ECCD8085918589974D97E1
:1016300008F0E6CD9F01265F3F4FC12CD12C7601EB
:1016400045E050E0D5CD9F0126573F4FD9012D9160
:101650003C912C5031092B30310508F0D1CD30921E
:10166000260120922501C0922101D0922201E09210
:101670002301F092240188E090E07FCDD9011296F9
:101680006D917C911397695071096930710508F06B
:10169000B7CDCC0CDD1CEE1CFF1CA2CD8481958146
:1016A000825491098E9708F0DFCD8F01045C1F4FA3
:1016B0008DE190E020E030E0C3CD4D915C91485148
:1016C000510942315105D0F0CB010197959587958D
:1016D00090932601809325018A970CF4C5CDC9010A
:1016E000330FAA0BBB0B8093210190932201A0938F
:1016F0002301B093240189E090E03FCD220F331FF6
:101700009CCDD90112964D915C9113974951510985
:101710004331510508F5D701C601880F991FAA1F4B
:10172000BB1F6C017D016894C0F82C5F3F4F2617EA
:10173000370709F0B0CD2EE030E03093260120933A
:101740002501C0922101D0922201E0922301F09262
:1017500024018FE090E011CDD90112964D915C915A
:101760001397495051094930510508F09DCDCC0CD3
:10177000DD1CEE1CFF1CD9CFEDE2F1E013821282DA
:1017800088EE93E0A0E0B0E084839583A683B783DE
:1017900084E091E09183808385EC90E09587848755
:1017A00084EC90E09787868780EC90E0918B808B2B
:1017B00081EC90E0938B828B82EC90E0958B848B14
:1017C00086EC90E0978B868B118E128E138E148E82
:1017D000EAECF1E08BE0818313820895DB018F93C3
:1017E0009F930E94FE0BBF91AF91A29F800D911D10
:1017F000A39F900DB29F900D112408950E94460C56
:10180000A59F900DB49F900DA49F800D911D112454
:1018100008950F93083090F0982F872F762F652F1B
:10182000542F432F322F22270850F4CF220F331F7B
:10183000441F551F661F771F881F991F0A95B2F70F
:101840000F91089597FB10F8169400080F93083035
:1018500098F00850232F342F452F562F672F782FBD
:10186000892F902DF4CF0594979587957795679557
:1018700057954795379527950A95AAF70F9108959B
:10188000EE0FFF1F0590F491E02D0994A29FB00187
:10189000B39FC001A39F700D811D1124911DB29FA4
:1018A000700D811D1124911D08955058BB27AA2742
:1018B0000E946D0C0C94E70D0E94D90D38F00E9427
:1018C000E00D20F039F49F3F19F426F40C94D60D66
:1018D0000EF4E095E7FB0C94D00DE92F0E94F80D73
:1018E00058F3BA17620773078407950720F079F455
:1018F000A6F50C941A0E0EF4E0950B2EBA2FA02D1F
:101900000B01B90190010C01CA01A0011124FF27AC
:10191000591B99F0593F50F4503E68F11A16F040A7
:10192000A22F232F342F4427585FF3CF46953795A6
:101930002795A795F0405395C9F77EF41F16BA0B6B
:10194000620B730B840BBAF09150A1F0FF0FBB1F19
:10195000661F771F881FC2F70EC0BA0F621F731F62
:10196000841F48F4879577956795B795F7959E3FBF
:1019700008F0B0CF9395880F08F09927EE0F979550
:10198000879508950E94AC0D08F481E008950E94A7
:10199000DB0C0C94E70D0E94E00D58F00E94D90D6D
:1019A00040F029F45F3F29F00C94D00D51110C94B4
:1019B0001B0E0C94D60D0E94F80D68F39923B1F319
:1019C000552391F3951B550BBB27AA276217730765
:1019D000840738F09F5F5F4F220F331F441FAA1FF9
:1019E000A9F335D00E2E3AF0E0E832D091505040B5
:1019F000E695001CCAF72BD0FE2F29D0660F771F63
:101A0000881FBB1F261737074807AB07B0E809F048
:101A1000BB0B802DBF01FF2793585F4F3AF09E3FCD
:101A2000510578F00C94D00D0C941B0E5F3FE4F33D
:101A3000983ED4F3869577956795B795F7959F5F10
:101A4000C9F7880F911D9695879597F90895E1E05C
:101A5000660F771F881FBB1F621773078407BA07BB
:101A600020F0621B730B840BBA0BEE1F88F7E09516
:101A700008950E94400D6894B1110C941B0E0895B6
:101A80000E94000E88F09F5798F0B92F9927B75100
:101A9000B0F0E1F0660F771F881F991F1AF0BA9512
:101AA000C9F714C0B13091F00E941A0EB1E0089548
:101AB0000C941A0E672F782F8827B85F39F0B93F3A
:101AC000CCF3869577956795B395D9F73EF49095C5
:101AD0008095709561957F4F8F4F9F4F0895E89443
:101AE00009C097FB3EF490958095709561957F4F66
:101AF0008F4F9F4F9923A9F0F92F96E9BB27939514
:101B0000F695879577956795B795F111F8CFFAF423
:101B1000BB0F11F460FF1BC06F5F7F4F8F4F9F4F54
:101B200016C0882311F096E911C0772321F09EE8B2
:101B3000872F762F05C0662371F096E8862F70E018
:101B400060E02AF09A95660F771F881FDAF7880FF2
:101B50009695879597F90895990F0008550FAA0B48
:101B6000E0E8FEEF16161706E807F907C0F01216B0
:101B70001306E407F50798F0621B730B840B950BB3
:101B800039F40A2661F0232B242B252B21F4089508
:101B90000A2609F4A140A6958FEF811D811D0895A5
:101BA00097F99F6780E870E060E008959FEF80EC10
:101BB000089500240A9416161706180609060895B3
:101BC00000240A9412161306140605060895092E19
:101BD0000394000C11F4882352F0BB0F40F4BF2B88
:101BE00011F460FF04C06F5F7F4F8F4F9F4F0895C8
:101BF00057FD9058440F551F59F05F3F71F04795BE
:101C0000880F97FB991F61F09F3F79F087950895A2
:101C1000121613061406551FF2CF4695F1DF08C0C1
:101C2000161617061806991FF1CF869571056105DE
:101C300008940895E894BB2766277727CB0197F986
:101C400008950E94340E0C94E70D0E94D90D38F0CF
:101C50000E94E00D20F0952311F00C94D00D0C940F
:101C6000D60D11240C941B0E0E94F80D70F3959F55
:101C7000C1F3950F50E0551F629FF001729FBB2783
:101C8000F00DB11D639FAA27F00DB11DAA1F649F1F
:101C90006627B00DA11D661F829F2227B00DA11DD2
:101CA000621F739FB00DA11D621F839FA00D611D58
:101CB000221F749F3327A00D611D231F849F600D79
:101CC000211D822F762F6A2F11249F5750409AF0A2
:101CD000F1F088234AF0EE0FFF1FBB1F661F771F2E
:101CE000881F91505040A9F79E3F510580F00C94F9
:101CF000D00D0C941B0E5F3FE4F3983ED4F3869511
:101D000077956795B795F795E7959F5FC1F7FE2B98
:101D1000880F911D9695879597F9089581E090E039
:0A1D2000F8940C94930EF894FFCF92
:101D2A000000000010018C00D900B700CB00570159
:041D3A000D0A00008E
:107E0000112484B714BE81FFF0D085E080938100F7
:107E100082E08093C00088E18093C10086E0809377
:107E2000C20080E18093C4008EE0C9D0259A86E02C
:107E300020E33CEF91E0309385002093840096BBD3
:107E4000B09BFECF1D9AA8958150A9F7CC24DD24C4
:107E500088248394B5E0AB2EA1E19A2EF3E0BF2EE7
:107E6000A2D0813461F49FD0082FAFD0023811F036
:107E7000013811F484E001C083E08DD089C08234E0
:107E800011F484E103C0853419F485E0A6D080C0E4
:107E9000853579F488D0E82EFF2485D0082F10E0AE
:107EA000102F00270E291F29000F111F8ED06801E7
:107EB0006FC0863521F484E090D080E0DECF843638
:107EC00009F040C070D06FD0082F6DD080E0C81688
:107ED00080E7D80618F4F601B7BEE895C0E0D1E017
:107EE00062D089930C17E1F7F0E0CF16F0E7DF06D8
:107EF00018F0F601B7BEE89568D007B600FCFDCFD4
:107F0000A601A0E0B1E02C9130E011968C91119780
:107F100090E0982F8827822B932B1296FA010C0160
:107F200087BEE89511244E5F5F4FF1E0A038BF0790
:107F300051F7F601A7BEE89507B600FCFDCF97BE46
:107F4000E89526C08437B1F42ED02DD0F82E2BD052
:107F50003CD0F601EF2C8F010F5F1F4F84911BD097
:107F6000EA94F801C1F70894C11CD11CFA94CF0C13
:107F7000D11C0EC0853739F428D08EE10CD085E9AC
:107F80000AD08FE07ACF813511F488E018D01DD067
:107F900080E101D065CF982F8091C00085FFFCCF94
:107FA0009093C60008958091C00087FFFCCF809118
:107FB000C00084FD01C0A8958091C6000895E0E648
:107FC000F0E098E1908380830895EDDF803219F02E
:107FD00088E0F5DFFFCF84E1DECF1F93182FE3DFCA
:107FE0001150E9F7F2DF1F91089580E0E8DFEE27F6
:047FF000FF270994CA
:027FFE00040479
:0400000300007E007B
:00000001FF
